:020000040000FA
:04000000803118280B
:1000060008007E1480310B1F09280A2816284E0185
:100016009A1C0E280F281628901C1228132816281A
:1000260097314E2780317E10090080311A2887319A
:10003600FF278031FB006D30840097308500D73074
:10004600860000308700103088310020803107306C
:1000560084009730850020308600013087000A3002
:10006600883100208031F601F701F801F901FA0123
:10007600EF01BF3084000030850018309631E52648
:1000860080317E10400180314828973141278031E8
:100096001F304001A0000730A1009631F4268031C0
:1000A6009731A22780318B170B170A30883106202B
:1000B60080314101BD003D08E90007306902031C9B
:1000C600652866286E284001A0010A308831642020
:1000D60080314101E9010B30883106208031410130
:1000E600BD003D08D40004305402031C7B287C2844
:1000F60084284001A0010A30883164208031410102
:10010600D4010C308831062080314101BD003D0804
:10011600D30002305302031C912892289A284001EA
:10012600A0010C308831642080314101D301513067
:10013600BD003D084001A0001130973135278031C0
:100146008831C720803100304101CE000030CD001B
:100156000930CC00C430CB006908D73E8600870141
:100166000108BD00BE013D084001ED0041013E0809
:100176004001EE0089310321803133304101BE0058
:10018600BB30BD00DF30890BC628BD0BC628BE0BB1
:10019600C628003241015408DE3E86008701010868
:1001A600BD00BE013D084001ED0041013E08400191
:1001B600EE00893103218031410152084E02031DB0
:1001C600EE2851084D02031DEE2850084C02031D6F
:1001D600EE284F084B020318F128F228F52888313B
:1001E600C72080317908031D04297808031D0429D6
:1001F6007708031D042933307602031C03290429DA
:10020600F52B04304101BD003D08D6000030D20078
:100216000030D1000030D0000030CF000030CE00DA
:100226000030CD000F30CC00A030CB004001EF01F4
:10023600F52B4608031D2B294508031D2B294408C9
:10024600031D2B2933304302031C2A292B293E295F
:1002560001304001ED000030EE008931032180318C
:1002660000304101D2000030D1000030D000003013
:10027600CF00D601D60A41014208031D4E29410886
:10028600031D4E294008031D4E2933303F02031C2F
:100296004D294E29DF2802304001ED000030EE00E6
:1002A60089310321803100304101D2000030D10074
:1002B6000030D0000030CF000230BD003D08D6002F
:1002C600DF2840011A1141014208031D7629410821
:1002D600031D76294008031D762933303F02031C8F
:1002E60075297629DF2803304101BD003D08D60077
:1002F600DF2840019A1141014608031D8E29450851
:10030600031D8E294408031D8E2933304302031C26
:100316008D298E29DF2876295208A4005108A300CA
:100326005008A2004F08A1008B319923803140016B
:100336009A111A1141014608450444044304031D59
:10034600A529A6299D294208410440043F04031D0E
:10035600AD29AE299D290030D2000030D1000030F1
:10036600D0000030CF00D6010030CE000030CD00E6
:100376001330CC008830CB004E085202031DCD2925
:100386004D085102031DCD294C085002031DCD29ED
:100396004B084F02031CD029D129BF29DF28790831
:1003A600031DE1297808031DE1297708031DE129CA
:1003B60033307602031CE029E129052A79087804FE
:1003C60077047604031DE829E929E1290130410172
:1003D600BD003D084001EF0704306F02031CF429FD
:1003E600F529F629EF0100304101D2000030D10095
:1003F6000030D0000030CF00400199166F089731C9
:10040600DD27803141014E085202031D142A4D0892
:100416005102031D142A4C085002031D142A4B08CE
:100426004F02031C172A182AD2290030D2000030A6
:10043600D1000030D0000030CF00362A4101D6016D
:10044600DF2805304101BD003D08D600DF28073012
:100456004101BD003D08D600DF2809304101BD003D
:100466003D08D600DF2840016F08003A0319212A0B
:10047600013A0319242A033A03192A2A013A0319CD
:10048600302ADF286908D73E860087010108BD00AB
:10049600BE013D084001ED0041013E084001EE006D
:1004A600893103218031832A7908031D662A780859
:1004B600031D662A7708031D662A33307602031C5D
:1004C600652A662A832A7908780477047604031D48
:1004D6006D2A6E2A662A01304101BD003D08E907F2
:1004E60007306902031C782A792A7A2AE901003042
:1004F600D2000030D1000030D0000030CF00452AB5
:1005060041014E085202031D922A4D085102031D55
:10051600922A4C085002031D922A4B084F02031CD4
:10052600952A962A572A0030D2000030D100003092
:10053600D0000030CF000630BD003D08D600DF28D1
:100546006908D73E860087010108BD00BE013D0847
:100556004001ED0041013E084001EE0089310321D2
:10056600803111304101BD003D084001A000F1304D
:100576009731352780310A30883106208031410194
:1005860069060319C72AC82AD12A6908BD003D0889
:100596004001A0000A3088316420803100304101DA
:1005A600D2000030D1000030D0000030CF00003043
:1005B600CE000030CD000F30CC00A030CB00212A79
:1005C6005408DE3E860087010108BD00BE013D08D5
:1005D6004001ED0041013E084001EE008931032152
:1005E6008031212B7908031D042B7808031D042B69
:1005F6007708031D042B33307602031C032B042BD0
:10060600212B7908780477047604031D0B2B0C2B19
:10061600042B01304101BD003D08D40704305402CB
:10062600031C162B172B182BD4010030D2000030D8
:10063600D1000030D0000030CF00E32A41014E083F
:100646005202031D302B4D085102031D302B4C085E
:100656005002031D302B4B084F02031C332B342B47
:10066600F52A0030D2000030D1000030D000003032
:10067600CF000830BD003D08D600DF285408DE3E16
:10068600860087010108BD00BE013D084001ED005E
:1006960041013E084001EE008931032180311130CD
:1006A6004101BD003D084001A000F13097313527DA
:1006B60080310B3088310620803141015406031900
:1006C600652B662BD12A5408BD003D084001A000C9
:1006D6000B30883164208031D12A5308BD00BE0119
:1006E6003D084001ED0041013E084001EE00893120
:1006F60003218031AA2B7908031D8D2B7808031D51
:100706008D2B7708031D8D2B33307602031C8C2B23
:100716008D2BAA2B7908780477047604031D942B75
:10072600952B8D2B01304101BD003D08D3070230CA
:100736005302031C9F2BA02BA12BD3010030D20008
:100746000030D1000030D0000030CF00702B4101C6
:100756004E085202031DB92B4D085102031DB92B39
:100766004C085002031DB92B4B084F02031CBC2B2F
:10077600BD2B7E2B0030D2000030D1000030D000DF
:100786000030CF000A30BD003D08D600DF285308F0
:10079600BD00BE013D084001ED0041013E0840019B
:1007A600EE0089310321803111304101BD003D0841
:1007B6004001A000F1309731352780310C30883167
:1007C60006208031410153060319EA2BEB2BD12A6F
:1007D6005308BD003D084001A0000C30883164205C
:1007E6008031D12A41015608003A03191C29013AE1
:1007F60003196429033A03197C29013A03198F293D
:10080600073A0319052A013A0319452A033A031937
:10081600A32A013A0319E32A0F3A0319412B013A95
:100826000319702B033A0319CA2BDF2880311828C5
:10083600400131088039B6003608BB003135B600B4
:100846003608C100B01F282C292C2A2C4114410837
:1008560003192E2C2F2C3E2C410A031D332C342C2D
:100866003C2C0030B1000030B0000030AF0000304A
:10087600AE00B017462C0030B1000030B00000309A
:10088600AF000030AE0035088039B6003608BB062A
:100896003535B6003608BC00B41F522C532C542CE8
:1008A6003C143C080319582C592C682C3C0A031D8F
:1008B6005D2C5E2C662C0030B5000030B400003094
:1008C600B3000030B200B417702C0030B500003011
:1008D600B4000030B3000030B2003C080319742C99
:1008E600752C7A2C4108031D792C7A2C832C003028
:1008F600B1000030B0000030AF000030AE00712E05
:100906002E08B6003608A000340888311920843134
:1009160040012108C7002008C6004608B600B701F6
:10092600B801B9013908C0003808BF003708BE0051
:100936003608BD004708B600B701B801B901390845
:10094600C5003808C4003708C3003608C2002F089F
:10095600B6003608A00033088831192084314001DA
:100966002108C7002008C6004608B600B701B8012E
:10097600B9013608BD073708BE3D3808BF3D3908FE
:10098600C03D4708B600B701B801B9013608C2072D
:100996003708C33D3808C43D3908C53D3008B600A0
:1009A6003608A00032088831192084314001210818
:1009B600C7002008C6004608B600B701B801B9014D
:1009C6003608BD073708BE3D3808BF3D3908C03D6B
:1009D6004708B600B701B801B9013608C20737089B
:1009E600C33D3808C43D3908C53D0830BD35BE0D88
:1009F600BF0DC00D890BF92C2F08B6003608A000D4
:100A0600320888311920843140012108C7002008A6
:100A1600C6004608BD074708BE3D0030BF3DC03D85
:100A26002E08B6003608A000330888311920843114
:100A360040012108C7002008C6004608BD07470830
:100A4600BE3D0030BF3DC03D0830BD35BE0DBF0DBB
:100A5600C00D890B282D2E08B6003608A0003208D6
:100A660088311920843140012108C7002008C600BA
:100A76004608BD074708BE3D0030BF3DC03D2F08B4
:100A8600B6003608A00034088831192084314001A8
:100A96002108C7002008C6004608C2074708C33D0C
:100AA6000030C43DC53D3008B6003608A000330806
:100AB60088311920843140012108C7002008C6006A
:100AC6004608C2074708C33D0030C43DC53D30084F
:100AD600B6003608A0003408883119208431400158
:100AE6002108C7002008C6004608B6004708B70018
:100AF600B801B9010830B635B70DB80DB90D890B77
:100B06007E2D3608C2073708C33D3808C43D39086C
:100B1600C53D3D08B6003E08B7003F08B80040088E
:100B2600B9001830B936B80CB70CB60C890B952D30
:100B36003608C2073708C33D3808C43D3908C53DE5
:100B46000830BD35BE0DBF0DC00D890BA42D410863
:100B56003C07B600B701B70D3608823EC600FF3027
:100B6600373DC700CD2D0130C235C30DC40DC50DAF
:100B7600890BB72DC01FC02DC12DC22D42140130C7
:100B8600BD35BE0DBF0DC00D890BC32DFF30C60789
:100B9600FF30C73DC41FD02DD12DB62DBC01C01FBF
:100BA600D52DD62DF22DFF303D05B600FF303E0582
:100BB600B700FF303F05B8007F304005B90039085F
:100BC6003804370436040319E92DEA2DED2DBC014E
:100BD600BC0AF22D421CF02DF12DF22DEA2D3C0817
:100BE6000319F62DF72D1F2E0130C2070030C33D25
:100BF6000030C43D0030C53D451C022E032E1F2E7D
:100C06004208B6004308B7004408B8004508B900D2
:100C16000130BA00B937B80CB70CB60CBA0B0D2EAA
:100C26003908C5003808C4003708C3003608C200B2
:100C36000130C6070030C73D4708803AB60080300D
:100C46003602031D282EFF304602031C2B2E2C2EA7
:100C5600362E7F304001C5008030C4000030C3000E
:100C66000030C200652E40014708803AB600803049
:100C76003602031D402E013046020318432E442E31
:100C86004F2E00304001C5000030C4000030C300C4
:100C96000030C200BB01652E40014608B60036088A
:100CA600C100FF30C205FF30C3057F30C4050030E8
:100CB600C505411C5F2E602E612EC4174136B60055
:100CC6003608C5003B08B6003608C5044508B1001D
:100CD6004408B0004308AF004208AE0008004001D7
:100CE600A80028080319782E792E8D2EA31F7C2E96
:100CF6007D2E8D2E2009AA002109AB002209AC0009
:100D06002309AD00AA0A0319AB0A0319AC0A031991
:100D1600AD0A952E2308AD002208AC002108AB00D1
:100D26002008AA002308220421042004031D9C2E67
:100D36009D2EA62E0030A3000030A2000030A10098
:100D46000030A0001E2F9630A4002408A900B62E5D
:100D56000130A4002408A9070130AD36AC0CAB0C59
:100D6600AA0C890BB02EFE302D05031DBB2EBC2E02
:100D7600AB2ED02E0130A4002408A9070130AA0703
:100D86000030AB3D0030AC3D0030AD3D0130AD36FE
:100D9600AC0CAB0CAA0C890BCA2EFF302D05031D1B
:100DA600D52ED62EBD2EE02E0130A9020130AA3551
:100DB600AB0DAC0DAD0D890BDA2EAC1BE32EE42E7C
:100DC600EA2E023029020318E92EEA2ED72E291818
:100DD600ED2EEE2EF62EFF30AA05FF30AB057F3046
:100DE600AC05FF30AD050310A90C2908A400A50128
:100DF600A601A7011830A435A50DA60DA70D890BD0
:100E0600FE2E2408AA042508AB042608AC042708ED
:100E1600AD0428080319102F112F162FA31F142F06
:100E2600152F162FAD172D08A3002C08A2002B088E
:100E3600A1002A08A00008004E01901001304101CF
:100E4600CF070030D03D0030D13D0030D23D4001CB
:100E56000C192E2F2F2F382F0130F6070030F73DB3
:100E66000030F83D0030F93D402F0030F9000030E9
:100E7600F8000030F7000030F6000E18432F442F1C
:100E86004E2F01304101BF070030C03D0030C13D4B
:100E96000030C23D572F00304101C2000030C10072
:100EA6000030C0000030BF0040018E185B2F5C2F61
:100EB600662F01304101C3070030C43D0030C53DF7
:100EC6000030C63D6F2F00304101C6000030C5001E
:100ED6000030C4000030C3004A08F5004908F40099
:100EE6004808F3004708F2000130C7070030C83D44
:100EF600C93DCA3D7508031D8C2F7408031D8C2F30
:100F06007308031D8C2FFB307202031C8B2F8C2F52
:100F1600AA2F00304101CA000030C9000030C800C5
:100F26000030C700FA097A0803199A2F9B2FA62FBB
:100F360066087B060319A02FA12FA62F66089731F6
:100F46001D278731AA2F7B0897311D278731080077
:100F56004001A601A701200821040319B32FB42FCD
:100F6600E32FA501A50AC02F0130A035A10D890BDD
:100F7600B82F0130A4002408A507A11FC32FC42F32
:100F8600B72F0130A635A70D890BC52F21082302DF
:100F9600031DCF2F20082202031CD22FD32FD82FB8
:100FA6002008A2022108A33B26140130A136A00C7A
:100FB600890BD92F0130A502031DE22FE32FC42F81
:100FC6002708A1002608A00008000330450190006C
:100FD6008F019101F9308D008C014E0190109A1409
:100FE60003304001A0000030A1009631F42687317D
:100FF600F03045018E0008001134FE0012001E007C
:10100600FE0B012800344001A000640050019E1828
:101016000D280F28400108281E17400120085001FE
:101026009A0070309B001E141C0808004001A8009E
:10103600A401A5012008A200A3012208A6002308F6
:10104600A700281C272828282C282608A4072708B4
:10105600A53D0130A635A70D890B2D280310A80C38
:101066002808031D3728382824282508A100240825
:10107600A00008004001980199019A013F309200B2
:1010860080309300F3309400F0307E01CE00803043
:10109600C3003330B8005030C4000430B900033008
:1010A600CF00BA01C501D0013730BB00F030C60011
:1010B600FF30D1003F30BC00F030C700FF30D20017
:1010C60008004001A10050019E186A286B28662876
:1010D6001E174001210850019A0070309B009D01A7
:1010E6004001200850019C00400103108B1F7C2802
:1010F6007D287E2803148B1350011E1555309F0042
:10110600AA309F009E149E1889288A2886281E11B8
:101116004001031C8F28902891288B170800400156
:1011260028082904031998289928C228AD01AD0A70
:10113600A5280130A835A90D890B9D280130AC00E2
:101146002C08AD07A91FA828A9289C2829082B0226
:10115600031DAF2828082A02031CB228B328B72883
:101166002808AA022908AB3B0130A936A80C890B2E
:10117600B8280130AD02031DC128C228A9282B08B2
:10118600A9002A08A800080051304001B200320820
:10119600A000513097313527883197318F27883114
:1011A6004001B3010230B2003208AE003308973175
:1011B600BC27883101304001B2003208B307033042
:1011C6003302031CE728E828D52800304101D20065
:1011D6000030D1000030D0000030CF0040011A1599
:1011E6009A1500304101CE000030CD00AF30CC0062
:1011F600C830CB00400199124101D601D501080043
:101206000A304001A8000030A9006E08AB006D0846
:10121600AA0088319220893140012808203E8600A4
:101226000130870001084101A00020084001AE00FE
:1012360002309731BC2789310A304001A8000030BE
:10124600A9000A30A0000030A1006E08A3006D08B6
:10125600A2008731AB27893140012108AB00200865
:10126600AA0088319220893140012808203E860054
:101276000130870001084101A00020084001AE00AE
:1012860001309731BC2789310A304001A80000306F
:10129600A9006430A0000030A1006E08A3006D080C
:1012A600A2008731AB27893140012108AB00200815
:1012B600AA0088319220893140012808203E860004
:1012C6000130870001084101A00020084001AE005E
:1012D60000309731BC278931080003104001640DA6
:1012E600650DE6006608EC006C08031D7B297C2969
:1012F60085290030E5000030E4000030E3000030CE
:10130600E200E4296208E6006308E7006408E800F2
:101316006508E9001F30E936E80CE70CE60C890B96
:101326008E296608EA006A08EB00E417FF30E2053A
:10133600FF30E305FF30E4050030E5059630EC02AA
:10134600EC1FA629A729BF296C08803A973E0318E7
:10135600AD29AE29AF297C290130E536E40CE30C32
:10136600E20C890BB0290130E6006608EC07031D84
:10137600BD29BE29AF29D42920306C02031CC429FB
:10138600C529CF297C290130E235E30DE40DE50DB1
:10139600890BC7290130EC026C08031DD329D42917
:1013A600C6296B080319D829D929E429E209E309D2
:1013B600E409E509E20A0319E30A0319E40A031931
:1013C600E50A080040014F088039D0005008D900CE
:1013D6004F35D0005008E000CE1FF229F329F4293A
:1013E600601460080319F829F929092A600A031DFF
:1013F600FD29FE29062A0030CF000030CE0000303D
:10140600CD000030CC00CE17CF01112A0030CF001E
:101416000030CE000030CD000030CC004B088039C3
:10142600D0005008D9064B35D0005008E100CA1F3D
:101436001D2A1E2A1F2A611461080319232A242A39
:10144600342A610A031D282A292A312A0030CB00B2
:101456000030CA000030C9000030C800CA17CB01EE
:101466003C2A0030CB000030CA000030C9000030F2
:10147600C8004B084A0449044804031D432A442A69
:101486005D2A0030CF000030CE000030CD000030A5
:10149600CC008030CE047F30CF045908D0005008ED
:1014A600CF044F08CB004E08CA004D08C9004C08AF
:1014B600C800982B6008031D612A622A6B2A003037
:1014C600CB000030CA000030C9000030C800982B9D
:1014D6006008D000D1015108D30061085002D20043
:1014E600031CD30352087F3EDA000030533DDB0075
:1014F6004F08D8004E08D7004D08D6004C08D50036
:101506000030CF000030CE000030CD000030CC00DF
:101516000030DF000030DE000030DD000030DC008F
:10152600E101D32A61080319992A9A2AB42A0130BB
:10153600D535D60DD70DD80D890B9B2A0130CC3564
:10154600CD0DCE0DCF0D890BA22ADF1FAB2AAC2AFB
:10155600AD2A4C140130DC35DD0DDE0DDF0D890BB7
:10156600AE2A4B085802031DC22A4A085702031D19
:10157600C22A49085602031DC22A48085502031CFE
:10158600C52AC62ACF2A5F174808D5024908D63B7E
:101596004A08D73B4B08D83B0130D0005008E1073A
:1015A6001A306102031CD82AD92A952A58085704EA
:1015B600560455040319E02AE12AFA2A5C14FA2A89
:1015C6000130CC35CD0DCE0DCF0D890BE42ADF1FB2
:1015D600ED2AEE2AEF2A4C140130DC35DD0DDE0D46
:1015E600DF0D890BF02AFF30DA07FF30DB3DCE1F17
:1015F600FD2AFE2AE32AE101DF1F022B032B1F2B04
:10160600FF305C05D000FF305D05D100FF305E0580
:10161600D2007F305F05D3005308520451045004B2
:101626000319162B172B1A2BE101E10A1F2B4C1C51
:101636001D2B1E2B1F2B172B61080319232B242B65
:101646004C2B0130CC070030CD3D0030CE3D003074
:10165600CF3D4F1C2F2B302B4C2B4C08D0004D0868
:10166600D1004E08D2004F08D3000130D400D33742
:10167600D20CD10CD00CD40B3A2B5308CF00520805
:10168600CE005108CD005008CC000130DA070030FA
:10169600DB3D5B08803AD00080305002031D552B9D
:1016A600FF305A02031C582B592B662BFF30400182
:1016B600DA000030DB000030CF000030CE00003012
:1016C600CD000030CC0040015B08803AD00080306D
:1016D6005002031D702B01305A020318732B742B12
:1016E600802B4001DA01DB010030CF000030CE0054
:1016F6000030CD000030CC00D90140015A08D0009E
:101706005008E000601C882B892B8B2BCE178F2B63
:101716007F30D0005008CE056036D0005008CF008C
:101726005908D0005008CF04542A0800443040011C
:10173600CB007A30CA000030C9000030C800410131
:1017460024084001A300410123084001A2004101F1
:1017560022084001A100410121084001A0000030FB
:10176600863172268B3140012308CF002208CE0035
:101776002108CD002008CC008931E5218B314001BC
:101786004B084101AC0040014A084101AB00400151
:1017960049084101AA00400148084101A900473013
:1017A6004001CB00C330CA005030C9000030C80029
:1017B60041015408DE3E860087010108A500A60106
:1017C600A701A80128084001A300410127084001FC
:1017D600A200410126084001A1004101250840015F
:1017E600A0000030863172268B3140012308CF00DD
:1017F6002208CE002108CD002008CC008931E52141
:101806008B3140014B084101B00040014A084101BB
:10181600AF00400149084101AE00400148084101BE
:10182600AD0045304001CB006130CA000030C90030
:101836000030C80041012C084001CF0041012B08AF
:101846004001CE0041012A084001CD00410129088E
:101856004001CC008931E5218B3140014B08410123
:10186600B40040014A084101B30040014908410162
:10187600B200400148084101B10034084001CB00E4
:10188600410133084001CA00410132084001C90044
:10189600410131084001C800410130084001CF0034
:1018A60041012F084001CE0041012E084001CD0024
:1018B60041012D084001CC008931E5218B314001E1
:1018C6004B084101BA0040014A084101B9004001F4
:1018D60049084101B800400148084101B7006908BC
:1018E600D73E860087010108A500A601A701A80129
:1018F60028084001A300410127084001A200410138
:1019060026084001A100410125084001A000003041
:10191600863172268B3140012308B5002208B400B7
:101926002108B3002008B20041013A084001B10085
:10193600410139084001B000410138084001AF00BB
:10194600410137084001AE0084311B248B31400130
:101956003108CF003008CE002F08CD002E08CC006D
:101966003F30CB00CD30CA00F330C900B630C800D6
:101976008931E5218B3140014B08E5004A08E40036
:101986004908E3004808E200893170218B314001A3
:1019960063084101BC00400162084101BB006908BF
:1019A600D73E860087010108A500A601A701A80168
:1019B60028084001A300410127084001A200410177
:1019C60026084001A100410125084001A000003081
:1019D600863172268B3140012308B5002208B400F7
:1019E6002108B3002008B20041013A084001B100C5
:1019F600410139084001B000410138084001AF00FB
:101A0600410137084001AE0084311B248B3140016F
:101A16003108E5003008E4002F08E3002E08E20054
:101A2600893170218B31400163084101B6004001C4
:101A360062084101B500D130A50025084001A0008B
:101A4600D130973135278B31003041013C0232309D
:101A560003193B02031C302D312D442D00303C026E
:101A6600463003193B020318392D3A2D442DF13027
:101A7600A50025084001A000F130973135278B31AC
:101A8600562D00303C02463003193B02031C4C2DF8
:101A96004D2D562D1130A50025084001A000F1302E
:101AA600973135278B314101530803195B2D5C2D86
:101AB600922D35084001A000410136084001A100E1
:101AC600A201A3010030863172268B314001230822
:101AD600B5002208B4002108B3002008B2003F3048
:101AE600B1000030B0000030AF000030AE008D31E4
:101AF600C8258B3140013108E5003008E4002F0885
:101B0600E3002E08E200893170218B314001630821
:101B1600EE006208ED00893103218B31C72D3B08A9
:101B26004001A00041013C084001A100A201A3011F
:101B36000030863172268B3140012308B500220819
:101B4600B4002108B3002008B2003F30B1000030D5
:101B5600B0000030AF000030AE008D31C8258B31AB
:101B660040013108E5003008E4002F08E3002E08A4
:101B7600E200893170218B3140016308EE00620872
:101B8600ED00893103218B3108004001310880398D
:101B9600B6003608BE003135B6003608C000B01FA4
:101BA600D52DD62DD72D401440080319DB2DDC2D5D
:101BB600EC2D400A031DE02DE12DE92D0030B1008A
:101BC6000030B0000030AF000030AE00B017B101F9
:101BD600F42D0030B1000030B0000030AF0000300E
:101BE600AE0035088039B6003608BF003F083E060D
:101BF6000319FE2DFF2D002E3E173535B60036088B
:101C0600BF00B41F072E082E092E3F143F080319E4
:101C16000D2E0E2E1E2E3F0A031D122E132E1B2EC8
:101C26000030B5000030B4000030B3000030B20020
:101C3600B417B501262E0030B5000030B4000030D0
:101C4600B3000030B20040083F0203182B2E2C2EA2
:101C5600702E3E1F2F2E302E342E8030B6003608C2
:101C6600BE064008B6003608C1003F08B600360872
:101C7600C0004108B6003608BF002E08B600360878
:101C8600C1003208B6003608AE004108B600360874
:101C9600B2002F08B6003608C1003308B600360871
:101CA600AF004108B6003608B3003008B600360863
:101CB600C1003408B6003608B0004108B600360840
:101CC600B4003108B6003608C1003508B60036083B
:101CD600B1004108B6003608B500C1013F08B6009C
:101CE600B7013708B90040083602B800031CB9032B
:101CF6003908803ABA0080303A02031D842E1A3021
:101D06003802031C872E882EC02E4001310830046D
:101D16002F042E04031D902E922E0130932E003098
:101D2600B6003608C1000030B1000030B000003007
:101D3600AF000030AE003F08B6003608C000C72E20
:101D4600411CA62EA72EAD2E41360138B600360808
:101D5600C100AF2E0310C10C2E1CB22EB32EB42E12
:101D6600C1170130B600B137B00CAF0CAE0CB60BD4
:101D7600B62E0130B6003608C00740013F084002C3
:101D8600031CC62EC72EA32E3E1BCA2ECB2E032FF8
:101D96004008031DCF2ED02ED92E0030B1000030C2
:101DA600B0000030AF000030AE00FF2F3208AE07A3
:101DB6003308AF3D3408B03D3508B13D311CE42E43
:101DC600E52E8F2F411CE82EE92EEF2E41360138E5
:101DD600B6003608C100F12E0310C10C2E1CF42EDD
:101DE600F52EF62EC1170130B600B137B00CAF0C88
:101DF600AE0CB60BF82E0130B6003608C0078F2F92
:101E06003108803AB6003508803A3602031D152F90
:101E160034083002031D152F33082F02031D152F1A
:101E260032082E020318182F192F512FFF30B60033
:101E3600FF30B700FF30B800FF30B9002E0832027D
:101E4600BA002F08333BBB003008343BBC003108D6
:101E5600353BBD003A08B6073B08B73D3C08B83DE0
:101E66003D08B93D3908B1003808B0003708AF0061
:101E76003608AE008030B6003608BE06C109C10A73
:101E86004108031D472F482F592F0130AE07003058
:101E9600AF3D0030B03D0030B13D592F3208AE02A3
:101EA6003308AF3B3408B03B3508B13B310830044A
:101EB6002F042E04031D602F612F8B2F4108031D55
:101EC600652F662F8B2F0030B1000030B000003038
:101ED600AF000030AE00FF2F0130AE35AF0DB00DB4
:101EE600B10D890B702FC11F792F7A2F7B2F2E14DE
:101EF600411C7E2F7F2F822F0314C10D842F0310C8
:101F0600C10D40080319882F892F8B2F0130C0027D
:101F1600B01F8E2F8F2F6F2FBF01C11F932F942FAE
:101F2600A22F41087F390319992F9A2F9D2FBF01A0
:101F3600BF0AA22F2E1CA02FA12FA22F9A2F3F0837
:101F46000319A62FA72FD42F0130AE070030AF3DBF
:101F56000030B03D0030B13D311CB22FB32FD42F2D
:101F66002E08B6002F08B7003008B8003108B900AF
:101F76000130BA00B937B80CB70CB60CBA0BBD2F86
:101F86003908B1003808B0003708AF003608AE008F
:101F9600400A0319CF2FD02FD42F0130B6003608B0
:101FA600C007400A0319D82FD92FDE2F4008031D7A
:101FB600DD2FDE2FEC2F0030B1000030B0000030F6
:101FC600AF000030AE004008031DEA2FEB2FEC2FC8
:101FD600BE01401CEF2FF02FF22FB017F62F7F30E7
:101FE600B6003608B0054036B6003608B100BE1F4A
:0A1FF600FD2FFE2FFF2FB11708008A
:102D9A0097311127963143011114080097311127F1
:102DAA0096314301111508009731292796314301BD
:102DBA00111408009731292796314301111508008B
:102DCA00640080010131890BE62E00346030510124
:102DDA008D008F0191010630930092010800400195
:102DEA0021084101E800400120084101E7000800EC
:102DFA004F0196019701980199019A019B019C0143
:102E0A009D010800FC346034DA34F2346634B63496
:102E1A00BE34E034FE34F634430111081F39031D71
:102E2A00172F182F112F0F191B2F1C2F112F0800C6
:102E3A00F1009631CD269731710897315D27973188
:102E4A009631D32697310800430111081F39031D13
:102E5A002F2F302F292F0F19332F342F292F080006
:102E6A004001A2002208A1002108FB002008A100BD
:102E7A0021084101E60008009631FD269731883184
:102E8A003D2097319631EB2697318731E8279731E4
:102E9A0008004E0190104101670868040319562F73
:102EAA00572F5C2F68088A0067080A0097310800C4
:102EBA00F000973111279731700843018C000F18E1
:102ECA00672F682F642F111B6B2F6C2F682F080038
:102EDA004C34303457349434A0349634DC3464346B
:102EEA004B3432341E34033483344334C334113400
:102EFA004001A0009731292797314001200843015A
:102F0A008C000F18892F8A2F862F111B8D2F8E2F39
:102F1A008A2F08004001B101AE0131089731BC2760
:102F2A00973101304001B0003008B1070430310256
:102F3A00031CA02FA12F912F08004001131613176D
:102F4A000E307D01C50013307E019E0014309C00B6
:102F5A000C307D01C60043018F130F131008F0399E
:102F6A000838900092114F308D00901608004001E9
:102F7A00AF009631D9269731223097317D27973184
:102F8A009631DF2697319631D926973140012F089D
:102F9A00E23E86008701010897317D27973140017B
:102FAA002E0897317D2797319631DF269731080011
:102FBA004001B30097318F27973140013308203EF3
:102FCA008600013087000108B2003208AE000130E5
:102FDA009731BC27973192304001B2003208AE00D7
:102FEA0000309731BC2797314001AE01023097314A
:062FFA00BC27973108001E
:020000040001F9
:0A000E00EC3FFF3F9F3FFF3FFF3F25
:00000001FF
