:020000040000FA
:04000000803118280B
:1000060008007E1480310B1F09280A2816284E0185
:100016009A1C0E280F281628901C1228132816281A
:100026008831C62080317E10090080311A284E3072
:10003600840089308500A0308600003087001B30A0
:100046008731FA278031F001F101F201F301F40161
:10005600F501EF01BB308400003085001630883191
:10006600652080317E104001803139288831AB20EF
:100076008031AC304001A0000B30A10088317420E3
:1000860080318931342180318B170B170A30893141
:100096000A2180314101E3006308E7000730670267
:1000A600031C562857285F284001A0010A308931D1
:1000B600F72180314101E7010B3089310A21803176
:1000C6004101E30063084001EF0004306F02031CA6
:1000D6006D286E287528A0010A308931F7218031F4
:1000E6004001EF0151304101E30063084001A000E7
:1000F60011308831B82080318A315A22803100305F
:100106004101CA000030C9000930C800C430C70028
:100116006708AA3E860087010108E300E401630838
:100126004001B000410164084001B1008A31D32288
:10013600803133304101E400BB30E300DF30890B0E
:10014600A228E30BA228E40BA228003240016F0884
:10015600B13E8600870101084101E300E40163081E
:100166004001B000410164084001B1008A31D32248
:10017600803141014E084A02031DCB284D08490231
:10018600031DCB284C084802031DCB284B08470209
:100196000318CE28CF28D2288A315A2280317308F4
:1001A600031DE1287208031DE1287108031DE128DB
:1001B60033307002031CE028E1284B2B0430410148
:1001C600E3006308D0000030CE000030CD000030E0
:1001D600CC000030CB000030CA000030C9000F3020
:1001E600C800A030C700F5014B2B4208031D0729A4
:1001F6004108031D07294008031D072933303F0224
:10020600031C062907291A2901304001B0000030D5
:10021600B1008A31D322803100304101CE00003056
:10022600CD000030CC000030CB00D001D00A410117
:100236003E08031D2A293D08031D2A293C08031DE3
:100246002A2933303B02031C29292A29BC280230DB
:100256004001B0000030B1008A31D3228031003035
:100266004101CE000030CD000030CC000030CB0084
:100276000230E3006308D000BC2840011A11410196
:100286003E08031D52293D08031D52293C08031D43
:10029600522933303B02031C51295229BC28033012
:1002A6004101E3006308D000BC2840019A114101D6
:1002B6004208031D6A294108031D6A294008031DD7
:1002C6006A2933303F02031C69296A29BC2852294E
:1002D6004E084001EA0041014D084001E900410194
:1002E6004C084001E80041014B084001E7008C3111
:1002F600E524803140019A111A1141014208410456
:1003060040043F04031D8829892980293E083D04AD
:100316003C043B04031D9029912980290030CE001E
:100326000030CD000030CC000030CB00D0010030D2
:10033600CA000030C9001330C8008830C7004A0818
:100346004E02031DB02949084D02031DB029480875
:100356004C02031DB02947084B02031CB329B429DC
:10036600A229BC287308031DC4297208031DC429C9
:100376007108031DC42933307002031CC329C42924
:10038600E6297308720471047004031DCB29CC2975
:10039600C42901304101E3006308F5070330750203
:1003A600031CD629D729D829F5010030CE00003004
:1003B600CD000030CC000030CB0040019916750806
:1003C60089318A21803141014A084E02031DF529EF
:1003D60049084D02031DF52948084C02031DF5295D
:1003E60047084B02031CF829F929B5290030CE002D
:1003F6000030CD000030CC000030CB000E2AD001FA
:10040600BC280530E3006308D000BC280730E300B1
:100416006308D000BC287508003A0319022A013A7D
:100426000319042A033A0319092ABC286708AA3EB5
:10043600860087010108E300E40163084001B0007B
:10044600410164084001B1008A31D3228031572A24
:100456007308031D3A2A7208031D3A2A7108031D00
:100466003A2A33307002031C392A3A2A572A73086B
:10047600720471047004031D412A422A3A2A01308B
:100486004101E3006308E70707306702031C4C2AB3
:100496004D2A4E2AE7010030CE000030CD00003054
:1004A600CC000030CB00192A41014A084E02031D38
:1004B600662A49084D02031D662A48084C02031D98
:1004C600662A47084B02031C692A6A2A2B2A00302F
:1004D600CE000030CD000030CC000030CB0006301E
:1004E600E3006308D000BC286708AA3E860087019F
:1004F6000108E300E40163084001B000410164081B
:100506004001B1008A31D322803111304101E3002C
:1005160063084001A000F1308831B82080310A30EC
:1005260089310A2180314101670603199B2A9C2AD9
:10053600A52A6708E30063084001A0000A30893154
:10054600F721803100304101CE000030CD0000306F
:10055600CC000030CB000030CA000030C9000F309C
:10056600C800A030C700022A40016F08B13E8600CD
:10057600870101084101E300E40163084001B0007E
:10058600410164084001B1008A31D3228031F92A41
:100596007308031DDA2A7208031DDA2A7108031D7F
:1005A600DA2A33307002031CD92ADA2AF92A7308A8
:1005B600720471047004031DE12AE22ADA2A01306A
:1005C6004101E30063084001EF0704306F02031C9A
:1005D600ED2AEE2AEF2AEF0100304101CE0000306D
:1005E600CD000030CC000030CB00B72A41014A08CC
:1005F6004E02031D082B49084D02031D082B48080F
:100606004C02031D082B47084B02031C0B2B0C2B1B
:10061600CB2A0030CE000030CD000030CC000030B8
:10062600CB000830E3006308D000BC2840016F0807
:10063600B13E8600870101084101E300E401630839
:100646004001B000410164084001B1008A31D32263
:10065600803111304101E30063084001A000F13010
:100666008831B82080310B3089310A218031400130
:100676006F0603193F2B402BA52A6F084101E300A3
:1006860063084001A0000B308931F7218031A52A8B
:1006960041015008003A0319F828013A0319402984
:1006A600033A03195829013A03196B29073A031922
:1006B600E629013A0319192A033A0319772A013A56
:1006C6000319B72A0F3A0319192BBC2880311828A9
:1006D600400131088039B6003608BB003135B60016
:1006E6003608C100B01F782B792B7A2B41144108AC
:1006F60003197E2B7F2B8E2B410A031D832B842B04
:100706008C2B0030B1000030B0000030AF0000305C
:10071600AE00B017962B0030B1000030B0000030AC
:10072600AF000030AE0035088039B6003608BB068B
:100736003535B6003608BC00B41FA22BA32BA42B5C
:100746003C143C080319A82BA92BB82B3C0A031D03
:10075600AD2BAE2BB62B0030B5000030B400003008
:10076600B3000030B200B417C02B0030B500003023
:10077600B4000030B3000030B2003C080319C42BAB
:10078600C52BCA2B4108031DC92BCA2BD32B0030FE
:10079600B1000030B0000030AF000030AE00C12D17
:1007A6002E08B6003608A00034088931AC21833102
:1007B60040012108C7002008C6004608B600B70158
:1007C600B801B9013908C0003808BF003708BE00B3
:1007D6003608BD004708B600B701B801B9013908A7
:1007E600C5003808C4003708C3003608C2002F0801
:1007F600B6003608A00033088931AC2183314001A8
:100806002108C7002008C6004608B600B701B8018F
:10081600B9013608BD073708BE3D3808BF3D39085F
:10082600C03D4708B600B701B801B9013608C2078E
:100836003708C33D3808C43D3908C53D3008B60001
:100846003608A00032088931AC21833140012108E5
:10085600C7002008C6004608B600B701B801B901AE
:100866003608BD073708BE3D3808BF3D3908C03DCC
:100876004708B600B701B801B9013608C2073708FC
:10088600C33D3808C43D3908C53D0830BD35BE0DE9
:10089600BF0DC00D890B492C2F08B6003608A000E5
:1008A60032088931AC21833140012108C700200874
:1008B600C6004608BD074708BE3D0030BF3DC03DE7
:1008C6002E08B6003608A00033088931AC218331E2
:1008D60040012108C7002008C6004608BD07470892
:1008E600BE3D0030BF3DC03D0830BD35BE0DBF0D1D
:1008F600C00D890B782C2E08B6003608A0003208E9
:100906008931AC21833140012108C7002008C60087
:100916004608BD074708BE3D0030BF3DC03D2F0815
:10092600B6003608A00034088931AC218331400175
:100936002108C7002008C6004608C2074708C33D6D
:100946000030C43DC53D3008B6003608A000330867
:100956008931AC21833140012108C7002008C60037
:100966004608C2074708C33D0030C43DC53D3008B0
:10097600B6003608A00034088931AC218331400125
:100986002108C7002008C6004608B6004708B70079
:10099600B801B9010830B635B70DB80DB90D890BD8
:1009A600CE2C3608C2073708C33D3808C43D39087F
:1009B600C53D3D08B6003E08B7003F08B8004008F0
:1009C600B9001830B936B80CB70CB60C890BE52C43
:1009D6003608C2073708C33D3808C43D3908C53D47
:1009E6000830BD35BE0DBF0DC00D890BF42C410876
:1009F6003C07B600B701B70D3608823EC600FF3089
:100A0600373DC7001D2D0130C235C30DC40DC50DC0
:100A1600890B072DC01F102D112D122D42140130E8
:100A2600BD35BE0DBF0DC00D890B132DFF30C6079A
:100A3600FF30C73DC41F202D212D062DBC01C01F30
:100A4600252D262D422DFF303D05B600FF303E05F3
:100A5600B700FF303F05B8007F304005B9003908C0
:100A66003804370436040319392D3A2D3D2DBC01BF
:100A7600BC0A422D421C402D412D422D3A2D3C08E8
:100A86000319462D472D6F2D0130C2070030C33D97
:100A96000030C43D0030C53D451C522D532D6F2DF1
:100AA6004208B6004308B7004408B8004508B90034
:100AB6000130BA00B937B80CB70CB60CBA0B5D2DBD
:100AC6003908C5003808C4003708C3003608C20014
:100AD6000130C6070030C73D4708803AB60080306F
:100AE6003602031D782DFF304602031C7B2D7C2D1C
:100AF600862D7F304001C5008030C4000030C30021
:100B06000030C200B52D40014708803AB60080305B
:100B16003602031D902D013046020318932D942DA5
:100B26009F2D00304001C5000030C4000030C300D6
:100B36000030C200BB01B52D40014608B60036089C
:100B4600C100FF30C205FF30C3057F30C405003049
:100B5600C505411CAF2DB02DB12DC4174136B600C9
:100B66003608C5003B08B6003608C5044508B1007E
:100B76004408B0004308AF004208AE000800400138
:100B86004B088039D0005008D8004B35D0005008AB
:100B9600DA00CA1FCF2DD02DD12D5A145A080319A9
:100BA600D52DD62DE62D5A0A031DDA2DDB2DE32D84
:100BB6000030CB000030CA000030C9000030C80049
:100BC600CA17CB01EE2D0030CB000030CA00003032
:100BD600C9000030C8004F088039D0005008D9003D
:100BE600590858060319F82DF92DFA2D58174F35BF
:100BF600D0005008D900CE1F012E022E032E591404
:100C060059080319072E082E182E590A031D0C2EF3
:100C16000D2E152E0030CF000030CE000030CD0056
:100C26000030CC00CE17CF01202E0030CF00003090
:100C3600CE000030CD000030CC005A08590203180F
:100C4600252E262E6A2E581F292E2A2E2E2E80302D
:100C5600D0005008D8065A08D0005008DB005908C2
:100C6600D0005008DA005B08D0005008D9004808C8
:100C7600D0005008DB004C08D0005008C8005B08C4
:100C8600D0005008CC004908D0005008DB004D08C1
:100C9600D0005008C9005B08D0005008CD004A08B3
:100CA600D0005008DB004E08D0005008CA005B0890
:100CB600D0005008CE004B08D0005008DB004F088B
:100CC600D0005008CB005B08D0005008CF00DB01F5
:100CD6005908D000D1015108D3005A085002D20059
:100CE600031CD3035308803AD40080305402031DFA
:100CF6007E2E1A305202031C812E822EBA2E4001FD
:100D06004B084A0449044804031D8A2E8C2E0130E0
:100D16008D2E0030D0005008DB000030CB000030B4
:100D2600CA000030C9000030C8005908D000500879
:100D3600DA00C12E5B1CA02EA12EA72E5B36013831
:100D4600D0005008DB00A92E0310DB0C481CAC2E8B
:100D5600AD2EAE2EDB170130D000CB37CA0CC90C36
:100D6600C80CD00BB02E0130D0005008DA07400175
:100D760059085A02031CC02EC12E9D2E581BC42E84
:100D8600C52EFD2E5A08031DC92ECA2ED32E00309D
:100D9600CB000030CA000030C9000030C800F92F6F
:100DA6004C08C8074D08C93D4E08CA3D4F08CB3D03
:100DB6004B1CDE2EDF2E892F5B1CE22EE32EE92E46
:100DC6005B360138D0005008DB00EB2E0310DB0C3D
:100DD600481CEE2EEF2EF02EDB170130D000CB375D
:100DE600CA0CC90CC80CD00BF22E0130D00050082A
:100DF600DA07892F4B08803AD0004F08803A500214
:100E0600031D0F2F4E084A02031D0F2F4D084902DE
:100E1600031D0F2F4C0848020318122F132F4B2FB8
:100E2600FF30D000FF30D100FF30D200FF30D300BA
:100E360048084C02D40049084D3BD5004A084E3BB1
:100E4600D6004B084F3BD7005408D0075508D13D74
:100E56005608D23D5708D33D5308CB005208CA0066
:100E66005108C9005008C8008030D0005008D80684
:100E7600DB09DB0A5B08031D412F422F532F01308C
:100E8600C8070030C93D0030CA3D0030CB3D532F66
:100E96004C08C8024D08C93B4E08CA3B4F08CB3B1D
:100EA6004B084A0449044804031D5A2F5B2F852F1B
:100EB6005B08031D5F2F602F852F0030CB000030AD
:100EC600CA000030C9000030C800F92F0130C8350B
:100ED600C90DCA0DCB0D890B6A2FDB1F732F742F1B
:100EE600752F48145B1C782F792F7C2F0314DB0D8C
:100EF6007E2F0310DB0D5A080319822F832F852FAF
:100F06000130DA02CA1F882F892F692FD901DB1F0A
:100F16008D2F8E2F9C2F5B087F390319932F942FCB
:100F2600972FD901D90A9C2F481C9A2F9B2F9C2FAB
:100F3600942F59080319A02FA12FCE2F0130C807CF
:100F46000030C93D0030CA3D0030CB3D4B1CAC2FB4
:100F5600AD2FCE2F4808D0004908D1004A08D2004C
:100F66004B08D3000130D400D337D20CD10CD00CAF
:100F7600D40BB72F5308CB005208CA005108C9003A
:100F86005008C8005A0A0319C92FCA2FCE2F01309C
:100F9600D0005008DA075A0A0319D22FD32FD82FB8
:100FA6005A08031DD72FD82FE62F0030CB0000306C
:100FB600CA000030C9000030C8005A08031DE42FDB
:100FC600E52FE62FD8015A1CE92FEA2FEC2FCA1776
:100FD600F02F7F30D0005008CA055A36D00050088E
:100FE600CB00D81FF72FF82FF92FCB170800FE00DC
:0A0FF60012001E00FE0BFB2F00345A
:10109A00883187208831430111140800883187205C
:1010AA00883143011115080088319F208831430196
:1010BA001114080088319F20883143011115080056
:1010CA00640080010131890B6628003460305101C7
:1010DA008D008F01910106309300920108004001B2
:1010EA0021084101E600400120084101E50008000D
:1010FA004F0196019701980199019A019B019C0160
:10110A009D010800430111081F39031D8D288E28EF
:10111A0087280F199128922887280800F700883114
:10112A004D20883177088831D5208831883153207D
:10113A0088310800430111081F39031DA528A62874
:10114A009F280F19A928AA289F28080088317D20DE
:10115A0088318931D021883188316B2088318931B1
:10116A001D21883108004001A2002208A10021089F
:10117A004101BA0040012008A10021084101B9003B
:10118A0008004E0190104101650866040319CE2833
:10119A00CF28D42866088A0065080A008831080022
:1011AA00F600883187208831760843018C000F18B1
:1011BA00DF28E028DC28111BE328E428E0280800BF
:1011CA004001A00088319F20883140012008430156
:1011DA008C000F18F128F228EE28111BF528F628A2
:1011EA00F22808004001B101AE01310889316921B4
:1011FA00883101304001B0003008B10704303102B3
:10120A00031C08290929F92808004001A0006400E4
:10121A0050019E181129132940010C291E1740015B
:10122A00200850019A0070309B001E141C08080008
:10123A000330450190008F019101F9308D008C0136
:10124A004E0190109A1403304001A0000030A10012
:10125A00883174208931F03045018E000800400140
:10126A00131613170E307D01C50013307E019E0040
:10127A0014309C000C307D01C60043018F130F13FC
:10128A001008F0390838900092114F308D009016EE
:10129A000800FC346034DA34F2346634B634BE34CE
:1012AA00E034FE34F6344C34303457349434A034B9
:1012BA009634DC3464344B3432341E34033483348D
:1012CA004334C334113411344001AF0088315920FA
:1012DA00893122308831E520893188315F2089318E
:1012EA0088315920893140012F08B53E860087018F
:1012FA0001088831E520893140012E088831E5202E
:10130A00893188315F20893108004001B300883172
:10131A00F720893140013308A03E86008701010881
:10132A00B2003208AE000130893169218931923028
:10133A004001B2003208AE0000308931692189319A
:10134A004001AE010230893169218931080040012A
:10135A00A800A401A5012008A200A3012208A60052
:10136A002308A700281CBA29BB29BF292608A407D5
:10137A002708A53D0130A635A70D890BC029031002
:10138A00A80C2808031DCA29CB29B7292508A100BA
:10139A002408A00008004001980199019A013F30F1
:1013AA00920080309300F3309400F0307E01CE003A
:1013BA008030C3003330B8005030C4000430B90064
:1013CA000330CF00BA01C501D0013730BB00F0307D
:1013DA00C600FF30D1003F30BC00F030C700FF30FC
:1013EA00D20008004001A10050019E18FD29FE29E3
:1013FA00F9291E174001210850019A0070309B00FC
:10140A009D014001200850019C00400103108B1FE0
:10141A000F2A102A112A03148B1350011E15553056
:10142A009F00AA309F009E149E181C2A1D2A192A62
:10143A001E114001031C222A232A242A8B17080082
:10144A0040012808290403192B2A2C2A552AAD0100
:10145A00AD0A382A0130A835A90D890B302A013086
:10146A00AC002C08AD07A91F3B2A3C2A2F2A2908C1
:10147A002B02031D422A28082A02031C452A462A4F
:10148A004A2A2808AA022908AB3B0130A936A80C27
:10149A00890B4B2A0130AD02031D542A552A3C2AD6
:1014AA002B08A9002A08A800080051304001B20000
:1014BA003208A00051308831B8208A318831F720AB
:1014CA008A314001B3010230B2003208AE0033085B
:1014DA00893169218A3101304001B2003208B307EB
:1014EA0003303302031C7A2A7B2A682A003041011E
:1014FA00CE000030CD000030CC000030CB004001DF
:10150A001A159A1500304101CA000030C900AF30DF
:10151A00C800C830C700400199124101D001CF016B
:10152A0008004001A601A7012008210403199E2AE8
:10153A009F2ACE2AA501A50AAB2A0130A035A10D02
:10154A00890BA32A0130A4002408A507A11FAE2AEB
:10155A00AF2AA22A0130A635A70D890BB02A210885
:10156A002302031DBA2A20082202031CBD2ABE2A0E
:10157A00C32A2008A2022108A33B26140130A1365F
:10158A00A00C890BC42A0130A502031DCD2ACE2A3C
:10159A00AF2A2708A1002608A00008000A30400147
:1015AA00A8000030A9003108AB003008AA008A312F
:1015BA0025228A3140012808A03E860087010108B9
:1015CA00B2003208AE000230893169218A310A300C
:1015DA004001A8000030A9000A30A0000030A10094
:1015EA003108A3003008A2008A3196228A314001CC
:1015FA002108AB002008AA008A3125228A3140013D
:10160A002808A03E860087010108B2003208AE0011
:10161A000130893169218A310A304001A80000303D
:10162A00A9006430A0000030A1003108A3003008EE
:10163A00A2008A3196228A3140012108AB00200893
:10164A00AA008A3125228A3140012808A03E860054
:10165A0087010108B2003208AE00003089316921E1
:10166A008A310800031040015E0D5F0DE00060083A
:10167A00E6006608031D422B432B4C2B0030DF008B
:10168A000030DE000030DD000030DC00AB2B5C08EF
:10169A00E0005D08E1005E08E2005F08E3001F3039
:1016AA00E336E20CE10CE00C890B552B6008E400F0
:1016BA006408E500DE17FF30DC05FF30DD05FF308A
:1016CA00DE050030DF059630E602E61F6D2B6E2B35
:1016DA00862B6608803A973E0318742B752B762B57
:1016EA00432B0130DF36DE0CDD0CDC0C890B772B4B
:1016FA000130E0006008E607031D842B852B762B5A
:10170A009B2B20306602031C8B2B8C2B962B432B96
:10171A000130DC35DD0DDE0DDF0D890B8E2B01303E
:10172A00E6026608031D9A2B9B2B8D2B650803196D
:10173A009F2BA02BAB2BDC09DD09DE09DF09DC0AB4
:10174A000319DD0A0319DE0A0319DF0A08004E012C
:10175A00901001304101CB070030CC3D0030CD3D27
:10176A000030CE3D40010C19BB2BBC2BC52B0130E0
:10177A00F0070030F13D0030F23D0030F33DCD2B53
:10178A000030F3000030F2000030F1000030F000C9
:10179A000E18D02BD12BDB2B01304101BB070030B7
:1017AA00BC3D0030BD3D0030BE3DE42B0030410160
:1017BA00BE000030BD000030BC000030BB0040015C
:1017CA008E18E82BE92BF32B01304101BF070030BB
:1017DA00C03D0030C13D0030C23DFC2B003041010C
:1017EA00C2000030C1000030C0000030BF0046080F
:1017FA00FB004508FA004408F9004308F8000130E4
:10180A00C3070030C43DC53DC63D7B08031D192CE6
:10181A007A08031D192C7908031D192CFB3078024C
:10182A00031C182C192C372C00304101C60000303B
:10183A00C5000030C4000030C300F409740803195D
:10184A00272C282C332C39083A0603192D2C2E2C38
:10185A00332C3908883193208B31372C3A08883158
:10186A0093208B3108004001A800280803193E2C58
:10187A003F2C532CA31F422C432C532C2009AA0083
:10188A002109AB002209AC002309AD00AA0A0319F9
:10189A00AB0A0319AC0A0319AD0A5B2C2308AD0085
:1018AA002208AC002108AB002008AA002308220461
:1018BA0021042004031D622C632C6C2C0030A3002D
:1018CA000030A2000030A1000030A000E42C9630C5
:1018DA00A4002408A9007C2C0130A4002408A9072C
:1018EA000130AD36AC0CAB0CAA0C890B762CFE3051
:1018FA002D05031D812C822C712C962C0130A400FD
:10190A002408A9070130AA070030AB3D0030AC3DDE
:10191A000030AD3D0130AD36AC0CAB0CAA0C890BD6
:10192A00902CFF302D05031D9B2C9C2C832CA62C60
:10193A000130A9020130AA35AB0DAC0DAD0D890BF2
:10194A00A02CAC1BA92CAA2CB02C023029020318FB
:10195A00AF2CB02C9D2C2918B32CB42CBC2CFF30E6
:10196A00AA05FF30AB057F30AC05FF30AD0503108B
:10197A00A90C2908A400A501A601A7011830A435BD
:10198A00A50DA60DA70D890BC42C2408AA042508A9
:10199A00AB042608AC042708AD0428080319D62C82
:1019AA00D72CDC2CA31FDA2CDB2CDC2CAD172D0852
:1019BA00A3002C08A2002B08A1002A08A0000800F6
:1019CA0044304001B1007A30B0000030AF0000303E
:1019DA00AE006A08A3006908A2006808A1006708A7
:1019EA00A00000308C3138248C3140012308B50026
:1019FA002208B4002108B3002008B2008E314C2618
:101A0A008C31400131084101D400400130084101C4
:101A1A00D30040012F084101D20040012E084101A4
:101A2A00D10048304001B1001D30B0002930AF006C
:101A3A008030AE006F08B13E860087010108EB00D6
:101A4A00EC01ED01EE016E08A3006D08A2006C081E
:101A5A00A1006B08A00000308C3138248C31400181
:101A6A002308B5002208B4002108B3002008B200F8
:101A7A008E314C268C31400131084101D800400199
:101A8A0030084101D70040012F084101D60040012A
:101A9A002E084101D50045304001B1006130B00047
:101AAA000030AF000030AE00410154084001B500DB
:101ABA00410153084001B400410152084001B300FA
:101ACA00410151084001B2008E314C268C3140014F
:101ADA0031084101DC00400130084101DB004001CE
:101AEA002F084101DA0040012E084101D9005C08A3
:101AFA004001B10041015B084001B00041015A08B0
:101B0A004001AF00410159084001AE0041015808A7
:101B1A004001B500410157084001B400410156088F
:101B2A004001B300410155084001B2008E314C26F4
:101B3A008C31400131084101E00040013008410187
:101B4A00DF0040012F084101DE0040012E0841015B
:101B5A00DD006708AA3E8600870101084001EB0004
:101B6A00EC01ED01EE016E08A3006D08A2006C08FD
:101B7A00A1006B08A00000308C3138248C31400160
:101B8A002308B5002208B4002108B3002008B200D7
:101B9A00410160084001B10041015F084001B00005
:101BAA0041015E084001AF0041015D084001AE00FD
:101BBA0083316B238C3140013108CF003008CE00CD
:101BCA002F08CD002E08CC003F30CB000030CA00D1
:101BDA000030C9000030C8008531C2258C3140016F
:101BEA004B08DF004A08DE004908DD004808DC002F
:101BFA008B3137238C3140015D084101E2004001FD
:101C0A005C084101E100D1304001EB006B08A00003
:101C1A00D1308831B8208C31003041016202323033
:101C2A0003196102031C1A2E1B2E2E2E003062028B
:101C3A004630031961020318232E242E2E2EF1306A
:101C4A004001EB006B08A000F1308831B8208C31DC
:101C5A00402E00306202463003196102031C362E00
:101C6A00372E402E11304001EB006B08A000F130F6
:101C7A008831B8208C31410162084001B10041012C
:101C8A0061084001B0008A31D3228C31080040013A
:101C9A0035088039B6003608BF003535B600360833
:101CAA00C600B41F592E5A2E5B2E46144608031935
:101CBA005F2E602E702E460A031D642E652E6D2E31
:101CCA000030B5000030B4000030B3000030B2007C
:101CDA00B417B501782E0030B5000030B4000030DA
:101CEA00B3000030B20031088039B6003608BF06AA
:101CFA003135B6003608C700B01F842E852E862ED1
:101D0A004714470803198A2E8B2E9B2E470A031D58
:101D1A008F2E902E982E0030B1000030B000003087
:101D2A00AF000030AE00B017B101A32E0030B100F1
:101D3A000030B0000030AF000030AE00310830048F
:101D4A002F042E04031DAA2EAB2EC42E0030B5007C
:101D5A000030B4000030B3000030B2008030B40468
:101D6A007F30B5043F08B6003608B5043508B1001F
:101D7A003408B0003308AF003208AE00FF2F46081F
:101D8A00031DC82EC92ED22E0030B1000030B0007B
:101D9A000030AF000030AE00FF2F4608B600B70192
:101DAA003708B90047083602B800031CB9033808D7
:101DBA007F3EC0000030393DC1003508BE003408FE
:101DCA00BD003308BC003208BB000030B50000304B
:101DDA00B4000030B3000030B2000030C50000305B
:101DEA00C4000030C3000030C200C7013A2F4708C0
:101DFA000319002F012F1B2F0130BB35BC0DBD0D60
:101E0A00BE0D890B022F0130B235B30DB40DB50DDD
:101E1A00890B092FC51F122F132F142F32140130CB
:101E2A00C235C30DC40DC50D890B152F31083E02ED
:101E3A00031D292F30083D02031D292F2F083C02BC
:101E4A00031D292F2E083B02031C2C2F2D2F362F62
:101E5A0045172E08BB022F08BC3B3008BD3B310892
:101E6A00BE3B0130B6003608C7071A304702031CCA
:101E7A003F2F402FFC2E3E083D043C043B0403192F
:101E8A00472F482F612F4214612F0130B235B30D0D
:101E9A00B40DB50D890B4B2FC51F542F552F562F37
:101EAA0032140130C235C30DC40DC50D890B572F2D
:101EBA00FF30C007FF30C13DB41F642F652F4A2F82
:101ECA00C701C51F692F6A2F862FFF304205B6004A
:101EDA00FF304305B700FF304405B8007F304505A1
:101EEA00B900390838043704360403197D2F7E2FC8
:101EFA00812FC701C70A862F321C842F852F862F70
:101F0A007E2F470803198A2F8B2FB32F0130B20770
:101F1A000030B33D0030B43D0030B53D351C962F3E
:101F2A00972FB32F3208B6003308B7003408B80029
:101F3A003508B9000130BA00B937B80CB70CB60C7D
:101F4A00BA0BA12F3908B5003808B4003708B30016
:101F5A003608B2000130C0070030C13D4108803A5E
:101F6A00B60080303602031DBC2FFF304002031C2E
:101F7A00BF2FC02FCD2FFF304001C0000030C1005D
:101F8A000030B5000030B4000030B3000030B200B9
:101F9A0040014108803AB60080303602031DD72F2F
:101FAA00013040020318DA2FDB2FE72F4001C0016E
:101FBA00C1010030B5000030B4000030B300003079
:101FCA00B200BF0140014008B6003608C600461CF0
:101FDA00EF2FF02FF22FB417F62F7F30B600360806
:101FEA00B4054636B6003608B5003F08B6003608CE
:061FFA00B504BB2E080037
:020000040001F9
:0A000E00EC3FFF3F9F3FFF3FFF3F25
:00000001FF
