:020000040000FA
:04000000803118280B
:1000060008007E1480310B1F09280A2816284E0185
:100016009A1C0E280F281628901C1228132816281A
:100026009531B32580317E10090080311A28873139
:10003600FE278031FB0041018731FF278031EF0029
:1000460021308400963085002030860001308700FC
:10005600193095315E258031F601F701F801F90175
:10006600FA014001EF01E4308400003085000A30D7
:1000760095315825803139308400013085000E30A5
:100086009531582580317E10400180314A289531BE
:10009600A6258031D1304001A0000830A10095315D
:1000A6006D25803196313A2680318B170B170A3031
:1000B6009531F72580314101E2006208EE000730F4
:1000C6006E02031C6728682870284001A0010A30C8
:1000D6009631E42680314101EE010B309531F7254A
:1000E60080314101E2006208ED0004306D02031C1C
:1000F6007D287E2886284001A0010A309631E42614
:1001060080314101ED010C309531F72580314101F7
:10011600E2006208EC0002306C02031C932894286B
:100126009C284001A0010C309631E4268031410123
:10013600EC015130E20062084001A0001130953117
:100146009A25803188310A20803100304101E7004C
:100156000030E6000930E500C430E4006E082A3EAF
:100166008600013087000108E200E3016208BB0057
:100176006308BC0097318727803133304101E300A3
:10018600BB30E200DF30890BC628E20BC628E30B42
:10019600C628003241016D08313E860001308700D5
:1001A6000108E200E3016208BB006308BC00973166
:1001B6008727803141016B086702031DEC286A0816
:1001C6006602031DEC2869086502031DEC28680811
:1001D60064020318EF28F028F32888310A208031BA
:1001E6007908031D02297808031D02297708031DD3
:1001F600022933307602031C01290229FA2B043026
:100206004101E20062084201C60000304101EB00F4
:100216000030EA000030E9000030E8000030E70076
:100226000030E6000F30E500A030E4004001EF01A9
:10023600FA2B4008031D2B293F08031D2B293E08D6
:10024600031D2B2933303D02031C2A292B293F2964
:1002560001304101BB000030BC0097318727803157
:1002660000304101EB000030EA000030E9000030C8
:10027600E8004201C601C60A42013C08031D4F2997
:100286003B08031D4F293A08031D4F293330390215
:10029600031C4E294F29DD2802304101BB000030E6
:1002A600BC0097318727803100304101EB000030D8
:1002B600EA000030E9000030E8000230E20062089F
:1002C6004201C600DD2840011A1142013C08031D07
:1002D60078293B08031D78293A08031D782933300D
:1002E6003902031C77297829DD2803304101E20011
:1002F60062084201C600DD2840019A114201400809
:10030600031D91293F08031D91293E08031D9129CC
:1003160033303D02031C90299129DD2878294101BB
:100326006B08C1006A08C0006908BF006808BE0003
:1003360084312024803140019A111A11420140086B
:100346003F043E043D04031DA929AA29A1293C080E
:100356003B043A043904031DB129B229A12900300E
:100366004101EB000030EA000030E9000030E8000F
:100376004201C60100304101E7000030E6001330BB
:10038600E5008830E40067086B02031DD42966087F
:100396006A02031DD42965086902031DD42964086D
:1003A6006802031CD729D829C629DD287908031D28
:1003B600E8297808031DE8297708031DE829333062
:1003C6007602031CE729E8290C2A790878047704C1
:1003D6007604031DEF29F029E82901304101E200E6
:1003E60062084001EF0704306F02031CFB29FC2959
:1003F600FD29EF0100304101EB000030EA0000303A
:10040600E9000030E800400199166F08963176261B
:100416008031410167086B02031D1B2A66086A02C8
:10042600031D1B2A65086902031D1B2A640868024E
:10043600031C1E2A1F2AD9290030EB000030EA00CF
:100446000030E9000030E800402A4201C601DD28FC
:1004560005304101E20062084201C600DD2807308E
:100466004101E20062084201C600DD28093041016F
:10047600E20062084201C600DD2840016F08003A2A
:100486000319282A013A03192B2A033A0319322A97
:10049600013A0319392ADD2841016E082A3E8600F1
:1004A600013087000108E200E3016208BB0063082F
:1004B600BC009731872780318C2A7908031D6F2A63
:1004C6007808031D6F2A7708031D6F2A33307602DA
:1004D600031C6E2A6F2A8C2A79087804770476041E
:1004E600031D762A772A6F2A01304101E20062084D
:1004F600EE0707306E02031C812A822A832AEE0148
:100506000030EB000030EA000030E9000030E8007F
:100516004F2A410167086B02031D9B2A66086A027F
:10052600031D9B2A65086902031D9B2A640868024D
:10053600031C9E2A9F2A602A0030EB000030EA0046
:100546000030E9000030E8000630E20062084201AF
:10055600C600DD2841016E082A3E8600013087006C
:100566000108E200E3016208BB006308BC009731A2
:100576008727803111304101E20062084001A00066
:10058600F13095319A2580310A309531F725803141
:1005960041016E060319D02AD12ADA2A6E08E20032
:1005A60062084001A0000A309631E426803100300E
:1005B6004101EB000030EA000030E9000030E800BD
:1005C6000030E7000030E6000F30E500A030E40020
:1005D600282A41016D08313E860001308700010856
:1005E600E200E3016208BB006308BC00973187277D
:1005F6008031292B7908031D0C2B7808031D0C2B41
:100606007708031D0C2B33307602031C0B2B0C2BA7
:10061600292B7908780477047604031D132B142BF1
:100626000C2B01304101E2006208ED0704306D0237
:10063600031C1E2B1F2B202BED010030EB0000307E
:10064600EA000030E9000030E800EC2A41016708C2
:100656006B02031D382B66086A02031D382B6508DA
:100666006902031D382B64086802031C3B2B3C2BD4
:10067600FD2A0030EB000030EA000030E9000030CF
:10068600E8000830E20062084201C600DD284101A8
:100696006D08313E8600013087000108E200E30163
:1006A6006208BB006308BC00973187278031113090
:1006B6004101E20062084001A000F13095319A251F
:1006C60080310B309531F725803141016D060319D4
:1006D6006D2B6E2BDA2A6D08E20062084001A0003D
:1006E6000B309631E4268031DA2A41016C08E200AB
:1006F600E3016208BB006308BC009731872780319D
:10070600B02B7908031D932B7808031D932B7708CC
:10071600031D932B33307602031C922B932BB02BA5
:100726007908780477047604031D9A2B9B2B932B68
:1007360001304101E2006208EC0702306C02031C42
:10074600A52BA62BA72BEC010030EB000030EA000E
:100756000030E9000030E800782B410167086B02A1
:10076600031DBF2B66086A02031DBF2B65086902BD
:10077600031DBF2B64086802031CC22BC32B842BEA
:100786000030EB000030EA000030E9000030E800FD
:100796000A30E20062084201C600DD2841016C0809
:1007A600E200E3016208BB006308BC0097318727BB
:1007B600803111304101E20062084001A000F130B1
:1007C60095319A2580310C309531F72580314101DC
:1007D6006C060319EF2BF02BDA2A6C08E20062088C
:1007E6004001A0000C309631E4268031DA2A42011D
:1007F6004608003A03191C29013A03196629033AE7
:1008060003197F29013A03199229073A03190C2A79
:10081600013A03194F2A033A0319AD2A013A03197B
:10082600EC2A0F3A03194A2B013A0319782B033A9B
:100836000319D12BDD288031182844304001D4001B
:100846007A30D3000030D2000030D1004101410897
:100856004001AC00410140084001AB0041013F08A6
:100866004001AA0041013E084001A900003086313E
:10087600DF26843140012C08D8002B08D7002A082F
:10088600D6002908D50089315E21843140015408FB
:100896004101C900400153084101C8004001520806
:1008A6004101C700400151084101C60047304001DF
:1008B600D400C330D3005030D2000030D100410103
:1008C6006D08313E8600013087000108C200C30171
:1008D600C401C50145084001AC004101440840017E
:1008E600AB00410143084001AA0041014208400112
:1008F600A90000308631DF26843140012C08D8005B
:100906002B08D7002A08D6002908D50089315E2190
:100916008431400154084101CD0040015308410192
:10092600CC00400152084101CB0040015108410171
:10093600CA0045304001D4006130D3000030D200F7
:100946000030D100410149084001D8004101480862
:100956004001D700410147084001D6004101460841
:100966004001D50089315E2184314001540841019E
:10097600D100400153084101D00040015208410115
:10098600CF00400151084101CE0051084001D4007A
:10099600410150084001D30041014F084001D200F7
:1009A60041014E084001D10041014D084001D800E7
:1009B60041014C084001D70041014B084001D600D7
:1009C60041014A084001D50089315E218431400148
:1009D60054084101D900400153084101D8004001A3
:1009E60052084101D700400151084101D6006E0866
:1009F6002A3E8600013087000108C200C301C401F7
:100A0600C50145084001AC00410144084001AB0066
:100A1600410143084001AA00410142084001A900E2
:100A260000308631DF26843140012C08BE002B08B9
:100A3600BD002A08BC002908BB0041015908400135
:100A4600BA00410158084001B90041015708400168
:100A5600B800410156084001B7008B31122384319A
:100A660040013A08D8003908D7003808D6003708B8
:100A7600D5003F30D400CD30D300FE30D200DA307E
:100A8600D10089315E218431400154084101A7001B
:100A9600400153084101A600400152084101A5004A
:100AA600400151084101A4003C30A3005430A2008B
:100AB600FD30A100F430A0008D316925843141015B
:100AC6002308B3002208B2002108B1002008B000B4
:100AD60097311227843141013008DA003108DB00F2
:100AE600DC01DD015D084001AC0041015C0840010C
:100AF600AB0041015B084001AA0041015A084001D0
:100B0600A90000308631DF26843140012C084101DE
:100B1600E10040012B084101E00040012A084101A3
:100B2600DF00400129084101DE006E082A3E8600EA
:100B3600013087000108C200C301C401C501450890
:100B46004001AC00410144084001AB0041014308AB
:100B56004001AA00410142084001A9000030863147
:100B6600DF26843140012C08BE002B08BD002A0870
:100B7600BC002908BB00410159084001BA004101E7
:100B860058084001B900410157084001B800410129
:100B960056084001B7008B311223843140013A08D0
:100BA6004101B300400139084101B2004001380853
:100BB6004101B100400137084101B00097311227C9
:100BC600843141013008DA003108DB00DC01DD0147
:100BD6005D084001AC0041015C084001AB004101E9
:100BE6005B084001AA0041015A084001A9000030F3
:100BF6008631DF26843140012C084101D5004001B1
:100C06002B084101D40040012A084101D3004001CC
:100C160029084101D200D130C20042084001A0009B
:100C2600D13095319A258431410161084001A300F4
:100C3600410160084001A20041015F084001A10096
:100C460041015E084001A0004230A7004830A600DE
:100C56000030A5000030A400883146208431031CF2
:100C6600352E362E602E410161084001A300410158
:100C760060084001A20041015F084001A100410156
:100C86005E084001A0004230A7008C30A60000306C
:100C9600A5000030A4008831462084310318542E64
:100CA600552E602EF1304101C20042084001A000DD
:100CB600F13095319A258431892E41016108400130
:100CC600A300410160084001A20041015F08400104
:100CD600A10041015E084001A0004230A7008C300F
:100CE600A6000030A5000030A400883146208431DB
:100CF600031C7E2E7F2E892E11304101C200420830
:100D06004001A000F13095319A25843141016C08EB
:100D160003198E2E8F2EB72E5508A7005408A6004D
:100D26005308A5005208A4003F30A3000030A200DB
:100D36000030A1000030A0008D31692584314101C9
:100D46002308B3002208B2002108B1002008B00031
:100D560097311227843141013108BC003008BB00AD
:100D6600973187278431DE2E6108A7006008A60028
:100D76005F08A5005E08A4003F30A3000030A20073
:100D86000030A1000030A0008D3169258431410179
:100D96002308B3002208B2002108B1002008B000E1
:100DA60097311227843141013108BC003008BB005D
:100DB60097318727843108004001B10031080319B3
:100DC600E52EE62EFA2EAC1FE92EEA2EFA2E29097A
:100DD600B3002A09B4002B09B5002C09B600B30AE2
:100DE6000319B40A0319B50A0319B60A022F2C0807
:100DF600B6002B08B5002A08B4002908B3002C0851
:100E06002B042A042904031D092F0A2F132F00304F
:100E1600AC000030AB000030AA000030A9008B2FD8
:100E26009630AD002D08B200232F0130AD002D08FD
:100E3600B2070130B636B50CB40CB30C890B1D2FB6
:100E4600FE303605031D282F292F182F3D2F013080
:100E5600AD002D08B2070130B3070030B43D0030B5
:100E6600B53D0030B63D0130B636B50CB40CB30C0A
:100E7600890B372FFF303605031D422F432F2A2FAC
:100E86004D2F0130B2020130B335B40DB50DB60D9C
:100E9600890B472FB51B502F512F572F0230320287
:100EA6000318562F572F442F32185A2F5B2F632FB4
:100EB600FF30B305FF30B4057F30B505FF30B6050A
:100EC6000310B20C3208AD00AE01AF01B00118300C
:100ED600AD35AE0DAF0DB00D890B6B2F2D08B304DC
:100EE6002E08B4042F08B5043008B60431080319D7
:100EF6007D2F7E2F832FAC1F812F822F832FB61736
:100F06003608AC003508AB003408AA003308A9003F
:100F160008004001A601A701200821040319942F07
:100F2600952FC42FA501A50AA12F0130A035A10D2B
:100F3600890B992F0130A4002408A507A11FA42F0F
:100F4600A52F982F0130A635A70D890BA62F2108AE
:100F56002302031DB02F20082202031CB32FB42F37
:100F6600B92F2008A2022108A33B26140130A1367E
:100F7600A00C890BBA2F0130A502031DC32FC42F65
:100F8600A52F2708A1002608A00008004001280870
:100F960029040319CF2FD02FF92FAD01AD0ADC2F6D
:100FA6000130A835A90D890BD42F0130AC002C08CF
:100FB600AD07A91FDF2FE02FD32F29082B02031D12
:100FC600E62F28082A02031CE92FEA2FEE2F28080D
:100FD600AA022908AB3B0130A936A80C890BEF2FD2
:100FE6000130AD02031DF82FF92FE02F2B08A900C1
:100FF6002A08A8000800113411344F019601970100
:10100600980199019A019B019C019D0108005130AC
:101016004001B2003208A000513095319A2588313E
:101026009531E42588314001B3010230B20032081F
:10103600AE00330896315426883101304001B200A3
:101046003208B30703303302031C2A282B2818283A
:1010560000304101EB000030EA000030E9000030CA
:10106600E80040011A159A1500304101E7000030EA
:10107600E600AF30E500C830E400400199124201B5
:10108600C601C5010800003040012005A800003057
:101096002105A90080302205AA007F302305AB0078
:1010A6002B082A0429042804031D5A285B286328D0
:1010B6000030A3000030A2000030A1000030A000E4
:1010C60000302405A80000302505A900803026053B
:1010D600AA007F302705AB002B082A042904280420
:1010E600031D762877287F280030A7000030A60049
:1010F6000030A5000030A400A31F822883289B2867
:101106000030A8000030A9000030AA008030AB00F3
:101116002008A8022108A93B2208AA3B2308AB3BCA
:101126002B08A3002A08A2002908A1002808A0006D
:10113600A71F9E289F28B7280030A8000030A900C6
:101146000030AA008030AB002408A8022508A93B7D
:101156002608AA3B2708AB3B2B08A7002A08A600AF
:101166002908A5002808A4008030A3068030A70619
:1011760027082302031DC92826082202031DC928A1
:1011860025082102031DC928240820020318CC289B
:10119600CD28CF280310D028031408004E01901044
:1011A60001304101E8070030E93D0030EA3D0030FA
:1011B600EB3D40010C19E028E128EA280130F6074A
:1011C6000030F73D0030F83D0030F93DF2280030A0
:1011D600F9000030F8000030F7000030F6000E1875
:1011E600F528F628002901304201B9070030BA3D3A
:1011F6000030BB3D0030BC3D092900304201BC0037
:101206000030BB000030BA000030B90040018E1833
:101216000D290E29182901304201BD070030BE3DB7
:101226000030BF3D0030C03D212900304201C000E2
:101236000030BF000030BE000030BD004408F5009D
:101246004308F4004208F3004108F2000130C107E8
:101256000030C23DC33DC43D7508031D3E297408D8
:10126600031D3E297308031D3E29FB307202031C31
:101276003D293E295D2900304201C4000030C300EB
:101286000030C2000030C100FA097A0803194C295F
:101296004D29592941016F087B0603195329542901
:1012A60059296F089531822588315D297B0895314A
:1012B600822588310800400158088039D90059082C
:1012C600E2005835D9005908E900D71F6B296C2967
:1012D6006D29691469080319712972298229690A15
:1012E600031D762977297F290030D8000030D700E2
:1012F6000030D6000030D500D717D8018A29003033
:10130600D8000030D7000030D6000030D500540891
:101316008039D9005908E2065435D9005908EA003F
:10132600D31F9629972998296A146A0803199C29B4
:101336009D29AD296A0A031DA129A229AA290030DF
:10134600D4000030D3000030D2000030D100D317D3
:10135600D401B5290030D4000030D3000030D200CB
:101366000030D1005408530452045104031DBC2913
:10137600BD29D6290030D8000030D7000030D6006D
:101386000030D5008030D7047F30D8046208D900F9
:101396005908D8045808D4005708D3005608D20074
:1013A6005508D100112B6908031DDA29DB29E42928
:1013B6000030D4000030D3000030D2000030D1001D
:1013C600112B6908D900DA015A08DC006A085902AB
:1013D600DB00031CDC035B087F3EE30000305C3D62
:1013E600E4005808E1005708E0005608DF005508F9
:1013F600DE000030D8000030D7000030D6000030C4
:10140600D5000030E8000030E7000030E60000308C
:10141600E500EA014C2A6A080319122A132A2D2A22
:101426000130DE35DF0DE00DE10D890B142A0130A8
:10143600D535D60DD70DD80D890B1B2AE81F242AC2
:10144600252A262A55140130E535E60DE70DE80D67
:10145600890B272A54086102031D3B2A53086002A0
:10146600031D3B2A52085F02031D3B2A51085E02F8
:10147600031C3E2A3F2A482A68175108DE025208F2
:10148600DF3B5308E03B5408E13B0130D9005908E3
:10149600EA071A306A02031C512A522A0E2A6108E8
:1014A60060045F045E040319592A5A2A732A6514D4
:1014B600732A0130D535D60DD70DD80D890B5D2A87
:1014C600E81F662A672A682A55140130E535E60DB5
:1014D600E70DE80D890B692AFF30E307FF30E43D8D
:1014E600D71F762A772A5C2AEA01E81F7B2A7C2AFC
:1014F600982AFF306505D900FF306605DA00FF300F
:101506006705DB007F306805DC005C085B045A0475
:10151600590403198F2A902A932AEA01EA0A982A7B
:10152600551C962A972A982A902A6A0803199C2AF3
:101536009D2AC52A0130D5070030D63D0030D73D5B
:101546000030D83D581CA82AA92AC52A5508D90012
:101556005608DA005708DB005808DC000130DD00C9
:10156600DC37DB0CDA0CD90CDD0BB32A5C08D800AF
:101576005B08D7005A08D6005908D5000130E307A2
:101586000030E43D6408803AD90080305902031DDA
:10159600CE2AFF306302031CD12AD22ADF2AFF306B
:1015A6004001E3000030E4000030D8000030D700EE
:1015B6000030D6000030D50040016408803AD900DA
:1015C60080305902031DE92A013063020318EC2A10
:1015D600ED2AF92A4001E301E4010030D800003089
:1015E600D7000030D6000030D500E2014001630884
:1015F600D9005908E900691C012B022B042BD717C7
:10160600082B7F30D9005908D7056936D900590803
:10161600D8006208D9005908D804CD29080040012D
:101626003A088039BF003F08C4003A35BF003F087A
:10163600CA00B91F1F2B202B212B4A144A08031955
:10164600252B262B352B4A0A031D2A2B2B2B332B16
:101656000030BA000030B9000030B8000030B700E2
:10166600B9173D2B0030BA000030B9000030B80081
:101676000030B7003E088039BF003F08C4063E353B
:10168600BF003F08C500BD1F492B4A2B4B2B4514F5
:10169600450803194F2B502B5F2B450A031D542B6E
:1016A600552B5D2B0030BE000030BD000030BC0065
:1016B6000030BB00BD17672B0030BE000030BD00F8
:1016C6000030BC000030BB00450803196B2B6C2BA7
:1016D600712B4A08031D702B712B7A2B0030BA0030
:1016E6000030B9000030B8000030B700682D370868
:1016F600BF003F08A0003D08963199268B31400176
:101706002108D0002008CF004F08BF00C001C1014A
:10171600C2014208C9004108C8004008C7003F0886
:10172600C6005008BF00C001C101C2014208CE0078
:101736004108CD004008CC003F08CB003808BF0068
:101746003F08A0003C08963199268B3140012108BC
:10175600D0002008CF004F08BF00C001C101C20160
:101766003F08C6074008C73D4108C83D4208C93D75
:101776005008BF00C001C101C2013F08CB074008A5
:10178600CC3D4108CD3D4208CE3D3908BF003F085B
:10179600A0003B08963199268B3140012108D000E4
:1017A6002008CF004F08BF00C001C101C2013F0899
:1017B600C6074008C73D4108C83D4208C93D500814
:1017C600BF00C001C101C2013F08CB074008CC3DA4
:1017D6004108CD3D4208CE3D0830C635C70DC80D7F
:1017E600C90D890BF02B3808BF003F08A0003B0845
:1017F600963199268B3140012108D0002008CF0070
:101806004F08C6075008C73D0030C83DC93D3708D8
:10181600BF003F08A0003C08963199268B31400155
:101826002108D0002008CF004F08C6075008C73D42
:101836000030C83DC93D0830C635C70DC80DC90DB5
:10184600890B1F2C3708BF003F08A0003B089631C4
:1018560099268B3140012108D0002008CF004F087F
:10186600C6075008C73D0030C83DC93D3808BF000F
:101876003F08A0003D08963199268B31400121088A
:10188600D0002008CF004F08CB075008CC3D0030D1
:10189600CD3DCE3D3908BF003F08A0003C0896313B
:1018A60099268B3140012108D0002008CF004F082F
:1018B600CB075008CC3D0030CD3DCE3D3908BF00AA
:1018C6003F08A0003D08963199268B31400121083A
:1018D600D0002008CF004F08BF005008C000C1014B
:1018E600C2010830BF35C00DC10DC20D890B752C64
:1018F6003F08CB074008CC3D4108CD3D4208CE3DD0
:101906004608BF004708C0004808C1004908C20091
:101916001830C236C10CC00CBF0C890B8C2C3F088A
:10192600CB074008CC3D4108CD3D4208CE3D0830AE
:10193600C635C70DC80DC90D890B9B2C4A0845072E
:10194600BF00C001C00D3F08823ECF00FF30403DC2
:10195600D000C42C0130CB35CC0DCD0DCE0D890B6E
:10196600AE2CC91FB72CB82CB92C4B140130C63578
:10197600C70DC80DC90D890BBA2CFF30CF07FF3034
:10198600D03DCD1FC72CC82CAD2CC501C91FCC2CF2
:10199600CD2CE92CFF304605BF00FF304705C000BF
:1019A600FF304805C1007F304905C20042084104A6
:1019B60040043F040319E02CE12CE42CC501C50AC0
:1019C600E92C4B1CE72CE82CE92CE12C45080319E3
:1019D600ED2CEE2C162D0130CB070030CC3D00301F
:1019E600CD3D0030CE3D4E1CF92CFA2C162D4B0861
:1019F600BF004C08C0004D08C1004E08C2000130AF
:101A0600C300C237C10CC00CBF0CC30B042D420867
:101A1600CE004108CD004008CC003F08CB00013085
:101A2600CF070030D03D5008803ABF0080303F02DB
:101A3600031D1F2DFF304F02031C222D232D2D2D9C
:101A46007F304001CE008030CD000030CC00003029
:101A5600CB005C2D40015008803ABF0080303F0229
:101A6600031D372D01304F0203183A2D3B2D462D0D
:101A760000304001CE000030CD000030CC000030F8
:101A8600CB00C4015C2D40014F08BF003F08CA00CF
:101A9600FF30CB05FF30CC057F30CD050030CE05BD
:101AA6004A1C562D572D582DCD174A36BF003F08D4
:101AB600CE004408BF003F08CE044E08BA004D08C9
:101AC600B9004C08B8004B08B700080041012308CC
:101AD6008039A80028084001EB0041012335A80001
:101AE60028084001ED004101A21F7A2D7B2D7D2D96
:101AF60040016D1440016D080319822D832D952D2B
:101B06006D0A031D872D882D912D00304101A300FC
:101B16000030A2000030A1000030A0004101A21751
:101B2600A3019E2D00304101A3000030A200003029
:101B3600A1000030A00027088039A800280840012D
:101B4600EC006C086B060319A92DAA2DAB2D6B179B
:101B560041012735A80028084001EC004101A61FD5
:101B6600B52DB62DB82D40016C1440016C08031933
:101B7600BD2DBE2DD02D6C0A031DC22DC32DCC2D1F
:101B860000304101A7000030A6000030A50000305B
:101B9600A4004101A617A701D92D00304101A700D5
:101BA6000030A6000030A5000030A40040016D08FA
:101BB6006C020318DF2DE02D3D2E6B1FE32DE42D67
:101BC600EA2D80304101A80028084001EB066D0887
:101BD6004101A80028084001EE006C084101A80058
:101BE60028084001ED006E084101A80028084001C0
:101BF600EC0041012008A80028084001EE00410140
:101C06002408A8002808A00040016E084101A80089
:101C16002808A4002108A80028084001EE00410178
:101C26002508A8002808A10040016E084101A80067
:101C36002808A5002208A80028084001EE00410156
:101C46002608A8002808A20040016E084101A80045
:101C56002808A6002308A80028084001EE00410134
:101C66002708A8002808A30040016E084101A80023
:101C76002808A7004001EE016C084101A800A9014F
:101C86002908AB0040016D0841012802AA00031C87
:101C9600AB032B08803AAC0080302C02031D552E76
:101CA6001A302A02031C582E592E9C2E4101230855
:101CB600220421042004031D612E632E0130642EAC
:101CC6000030A80028084001EE0000304101A300C2
:101CD6000030A2000030A1000030A00040016C08D6
:101CE6004101A80028084001ED00A32E6E1C7C2EA1
:101CF6007D2E852E6E3601384101A8002808400148
:101D0600EE00872E0310EE0C4101201C8B2E8C2E2C
:101D16008E2E4001EE1701304101A800A337A20C18
:101D2600A10CA00CA80B912E0130A8002808400198
:101D3600ED0740016C086D02031CA22EA32E792E1E
:101D46006B1BA62EA72EE82E6D08031DAB2EAC2E00
:101D5600B62E00304101A3000030A2000030A100E1
:101D66000030A000FF2F41012408A0072508A13D4F
:101D76002608A23D2708A33D231CC22EC32E7E2F74
:101D860040016E1CC72EC82ED02E6E36013841017A
:101D9600A80028084001EE00D22E0310EE0C4101E7
:101DA600201CD62ED72ED92E4001EE170130410128
:101DB600A800A337A20CA10CA00CA80BDC2E0130A6
:101DC600A80028084001ED077E2F41012308803A2C
:101DD600A8002708803A2802031DFB2E26082202A7
:101DE600031DFB2E25082102031DFB2E24082002BD
:101DF6000318FE2EFF2E392FFF30A800FF30A90052
:101E0600FF30AA00FF30AB0020082402AC002108F6
:101E1600253BAD002208263BAE002308273BAF003A
:101E26002C08A8072D08A93D2E08AA3D2F08AB3D72
:101E36002B08A3002A08A2002908A1002808A00050
:101E46008030A80028084001EB06EE09EE0A6E086D
:101E5600031D2E2F2F2F412F01304101A0070030E7
:101E6600A13D0030A23D0030A33D412F2408A00231
:101E76002508A13B2608A23B2708A33B41012308CE
:101E8600220421042004031D492F4A2F792F4001E3
:101E96006E08031D4F2F502F792F00304101A300EC
:101EA6000030A2000030A1000030A000FF2F01305A
:101EB600A035A10DA20DA30D890B5B2F4001EE1FCE
:101EC600652F662F682F4101201440016E1C6C2F70
:101ED6006D2F702F0314EE0D722F0310EE0D6D088B
:101EE6000319762F772F792F0130ED024101A21FBA
:101EF6007D2F7E2F5A2F4001EC01EE1F832F842F5A
:101F0600942F6E087F390319892F8A2F8E2F40014F
:101F1600EC01EC0A942F4101201C922F932F942F51
:101F26008A2F40016C080319992F9A2FCB2F013065
:101F36004101A0070030A13D0030A23D0030A33D85
:101F4600231CA62FA72FCB2F2008A8002108A90005
:101F56002208AA002308AB000130AC00AB37AA0C5C
:101F6600A90CA80CAC0BB12F2B08A3002A08A200C1
:101F76002908A1002808A00040016D0A0319C42FF2
:101F8600C52FCB2F01304101A80028084001ED07DD
:101F960040016D0A0319D02FD12FD62F6D08031DCE
:101FA600D52FD62FE62F00304101A3000030A20026
:101FB6000030A1000030A00040016D08031DE42F91
:101FC600E52FE62FEB016D1CE92FEA2FED2F4101DE
:101FD600A217F22F7F304101A8002808A205400170
:101FE6006D364101A8002808A3004001EB1FFC2F15
:0A1FF600FD2FFF2F4101A317080083
:102A8000953176259531430111140800953176254D
:102A9000953143011115080095318E25953143017B
:102AA0001114080095318E25953143011115080048
:102AB000640080010131890B592D0034FE001200A1
:102AC0001E00FE0B5F2D0034603051018D008F0120
:102AD0009101063093009201080040012108420153
:102AE000C800400120084201C70008004301110846
:102AF0001F39031D7C2D7D2D762D0F19802D812DE5
:102B0000762D0800F10095314025953171089531F9
:102B1000C2259531953146259531080043011108AC
:102B20001F39031D942D952D8E2D0F19982D992D3C
:102B30008E2D08004001A2002208A1002108FB0000
:102B40002008A10021084101EF0008008831002081
:102B500095319631BD269531953164259531963163
:102B60000A26953108004E0190104201470848049A
:102B70000319BB2DBC2DC12D48088A0047080A0047
:102B800095310800F00095317625953170084301A4
:102B90008C000F18CC2DCD2DC92D111BD02DD12D72
:102BA000CD2D08004001A00095318E2595314001C2
:102BB000200843018C000F18DE2DDF2DDB2D111BAB
:102BC000E22DE32DDF2D08004001B101AE013108F7
:102BD00096315426953101304001B0003008B107DC
:102BE00004303102031CF52DF62DE62D08004001BE
:102BF000A000640050019E18FE2D002E4001F92D0A
:102C00001E174001200850019A0070309B001E14CE
:102C10001C0808000330450190008F019101F93034
:102C20008D008C014E0190109A1403304001A000D9
:102C30000030A10095316D259631F03045018E00B0
:102C40000800FC346034DA34F2346634B634BE340E
:102C5000E034FE34F6344C34303457349434A034F9
:102C60009634DC3464344B3432341E3403348334CD
:102C70004334C3344001131613170E307D01C500D1
:102C800013307E019E0014309C000C307D01C60084
:102C900043018F130F131008F03908389000921178
:102CA0004F308D00901608004001AF0095314C2543
:102CB000963122309531D225963195315225963173
:102CC00095314C25963140012F08353E8600013064
:102CD000870001089531D225963140012E089531A3
:102CE000D225963195315225963108004001B30026
:102CF0009531E425963140013308203E86000130AD
:102D000087000108B2003208AE0001309631542627
:102D1000963192304001B2003208AE000030963158
:102D2000542696314001AE01023096315426963138
:102D300008004001A800A401A5012008A200A301E9
:102D40002208A6002308A700281CA72EA82EAC2E18
:102D50002608A4072708A53D0130A635A70D890B35
:102D6000AD2E0310A80C2808031DB72EB82EA42ED4
:102D70002508A1002408A00008004001980199013D
:102D80009A013F30920080309300F3309400F0308D
:102D90007E01CE008030C3003330B8005030C40014
:102DA0000430B9000330CF00BA01C501D00137307B
:102DB000BB00F030C600FF30D1003F30BC00F03027
:102DC000C700FF30D20008004001A10050019E184A
:102DD000EA2EEB2EE62E1E174001210850019A0024
:102DE00070309B009D014001200850019C00400173
:102DF00003108B1FFC2EFD2EFE2E03148B1350018F
:102E00001E1555309F00AA309F009E149E18092F52
:102E10000A2F062F1E114001031C0F2F102F112FF8
:102E20008B17080003104101320D330DB400340834
:102E3000BA003A08031D1D2F1E2F272F0030B300A4
:102E40000030B2000030B1000030B000862F3008F2
:102E5000B4003108B5003208B6003308B7001F309F
:102E6000B736B60CB50CB40C890B302F3408B8004B
:102E70003808B900B217FF30B005FF30B105FF3098
:102E8000B2050030B3059630BA02BA1F482F492F59
:102E9000612F3A08803A973E03184F2F502F512F39
:102EA0001E2F0130B336B20CB10CB00C890B522F6F
:102EB0000130B4003408BA07031D5F2F602F512F73
:102EC000762F20303A02031C662F672F712F1E2F9A
:102ED0000130B035B10DB20DB30D890B692F013042
:102EE000BA023A08031D752F762F682F3908031987
:102EF0007A2F7B2F862FB009B109B209B309B00A26
:102F00000319B10A0319B20A0319B30A08000A30F7
:102F10004001A8000030A90041013C084001AB007D
:102F200041013B084001AA008731C9279731400180
:102F30002808203E86000130870001084101BD00BD
:102F40003D084001AE0002309631542697310A30D8
:102F50004001A8000030A9000A30A0000030A10004
:102F600041013C084001A30041013B084001A2008F
:102F700087318C27973140012108AB002008AA0037
:102F80008731C927973140012808203E860001304B
:102F9000870001084101BD003D084001AE0001303D
:102FA0009631542697310A304001A8000030A9001C
:102FB0006430A0000030A10041013C084001A300A2
:102FC00041013B084001A20087318C279731400125
:102FD0002108AB002008AA008731C927973140019A
:102FE0002808203E86000130870001084101BD000D
:102FF0003D084001AE00003096315426973108005C
:020000040001F9
:0A000E00EC3FFF3F9F3FFF3FFF3F25
:00000001FF
